S01300007A617672736E69544553542E73726563C4
S11300000C942A000C94E3000C940B010C943F0014
S11300100C943F000C943F000C943F000C943F0060
S11300200C943F000C943F000C943F000C943F0050
S11300300C943F000C943A010C943F000C943F0044
S11300400C943F000C943F000C943F000C943F0030
S11300500C943F0011241FBECFE5D8E0DEBFCDBF16
S113006010E0A0E6B0E0EEE0F8E002C005900D92EA
S1130070A03DB107D9F70E9460000C9405040C94CC
S1130080000087E30E948801823949F480E690E009
S11300900E949D0381E790E00E949D03089580598A
S11300A0823048F480E690E00E949D0382E890E06C
S11300B00E949D03089582E990E00E949D030895A3
S11300C0CF93DF93CDB7DEB760970FB6F894DEBF5A
S11300D00FBECDBF8FEF8ABB8EEF8BBB8AE085BF8F
S11300E080EC8BBF0E945C032FEF8FE796E12150D9
S11300F080409040E1F700C000000E949B01EFEFB8
S1130100FFE726E1E150F0402040E1F700C00000A5
S113011080E895E20E946A038FEF9FE3EBE0815051
S11301209040E040E1F700C0000078940E94410054
S1130130FFEF2FE783E4F15020408040E1F700C057
S113014000007E0196E0E90EF11CBE016F5F7F4F57
S113015082E50E94F002182F83EA90E00E949D033A
S1130160113039F5CE0101960E9424038130A1F4A7
S11301708FEA90E00E949D038E010F5F1F4FF801EC
S113018081918F010E94AC030E151F05C1F786EC07
S113019090E00E949D0304C081EB90E00E949D03C7
S11301A0FFEF2FE388E3F15020408040E1F700C0E7
S11301B000009FEFEFE7F6E19150E040F040E1F7F7
S11301C000C00000C2CF1F920F920FB60F921124ED
S11301D02F933F934F935F936F937F938F939F934B
S11301E0AF93BF93EF93FF9388EC90E00E949D033D
S11301F00E94D703FF91EF91BF91AF919F918F918F
S11302007F916F915F914F913F912F910F900FBE0E
S11302100F901F9018951F920F920FB60F921124F2
S11302202F933F934F935F936F937F938F939F93FA
S1130230AF93BF93EF93FF938CEC90E00E949D03E8
S11302400E94D703FF91EF91BF91AF919F918F913E
S11302507F916F915F914F913F912F910F900FBEBE
S11302600F901F9018952EEF2ABB0E94C8038FEFA2
S11302708ABB08951F920F920FB60F9211242F93E9
S11302803F934F935F936F937F938F939F93AF931A
S1130290BF93EF93FF938CB1803319F0813399F0BE
S11302A016C08AEF90E00E9433012FEF8FE995E0AA
S11302B0215080409040E1F700C000008AEF90E0B8
S11302C00E94330104C084EF91E00E943301FF9146
S11302D0EF91BF91AF919F918F917F916F915F91BA
S11302E04F913F912F910F900FBE0F901F90189533
S11302F0CF93C62FC49896EF9A95F1F7880F8E770F
S11303000E9465038C2F0E946503C49ACF910895BF
S1130310C49896EF9A95F1F7880F8E7780680E94BB
S1130320650380E00E946503C49A08956FE081E04C
S11303300E94780108950E9496016DE88AE20E9465
S113034078016EE38BE20E9478016EE18CE20E94F8
S1130350780160E08DE20E94780160E485E10E940A
S113036078016DE381E10E94780184E10E948801B3
S1130370982F937029F4682F636084E10E947801B8
S113038008953F924F925F926F927F928F929F92C5
S1130390AF92BF92CF92DF92EF92FF920F931F938F
S11303A0CF93DF93982EF62EE72E442E822E332EF3
S11303B058018CE0981609F4C9C0EEE09E1203C0FF
S11303C010E102E102C010E000E084E00E94880134
S11303D0682F6F7784E00E9478018AE00E94880188
S11303E0682F60688AE00E94780160E081E00E94E2
S11303F07801512C612C712C411451046104710455
S113040019F415C010E307E7CF2DDE2DC12CD12C34
S11304107601699189E00E947801FFEFCF1ADF0A23
S1130420EF0AFF0AC414D504E604F70490F3692D17
S113043081E00E9478018CE0981208C08DE00E944F
S11304408801682F60688DE00E94780184E00E9432
S11304508801F82EC0E0D0E011600AC084E00E9458
S11304608801F82E2196CF3CE7E0DE0709F48CC022
S1130470812F8F2199F392C00170F02211F0C2E014
S113048001C0C1E0FCE09F1298C08AE00E9488018C
S1130490482E8CE00E948801282F2770A9F0842D13
S11304A090E00197880F991F880F991F880F991F53
S11304B0820F911D092E000CAA0BBB0BF501808342
S11304C09183A283B38311C0842D90E0880F991F78
S11304D0880F991F880F991F092E000CAA0BBB0BBC
S11304E0F50180839183A283B383442071F0842D2A
S11304F0813108F080E1482E512C612C712C41147B
S113050051046104710429F458C0412C512C320166
S11305104394082D132DC12CD12C760189E00E941F
S11305208801F80181938F01FFEFCF1ADF0AEF0AE8
S1130530FF0AC414D504E604F70480F33EC06CE05B
S113054081E00E94780110E307E778CF84E00E94FD
S11305508801682F6F7784E00E9478018AE00E9406
S11305608801682F60688AE00E94780160E081E079
S11305700E947801512C612C712C411451046104A6
S1130580710409F03FCFDBCF8DE00E948801682F12
S11305906F778DE00E947801C3E00FC08DE00E9468
S11305A08801682F6F778DE00E94780186E00E94B1
S11305B088018B7109F460CFC3E08C2FDF91CF9158
S11305C01F910F91FF90EF90DF90CF90BF90AF906D
S11305D09F908F907F906F905F904F903F90089581
S11305E0EF92FF920F931F93CF93DF9300D000D02D
S11305F0CDB7DEB7182F7B0167E08DE00E9478014C
S1130600F70110838E010F5F1F4F970141E0B7017F
S11306108CE00E94C101813059F449815A816B8177
S11306207C81403151056105710519F083E001C0F9
S113063083E00F900F900F900F90DF91CF911F9157
S11306400F91FF90EF900895EF92FF920F931F93F5
S1130650CF93DF9300D000D0CDB7DEB77C0160E04C
S11306608DE00E94780183E9F701808380E2818331
S11306708E010F5F1F4F970142E0B7018CE00E948B
S1130680C101813071F4F701A7014C5F5F4F90E025
S1130690219192274E175F07D9F7F701248192130E
S11306A083E00F900F900F900F90DF91CF911F91E7
S11306B00F91FF90EF90089587B3806B87BBBE982E
S11306C070988DB181658DB908958FB9779BFECFF0
S11306D08FB10895803629E0920741F0803C22E1F1
S11306E0920721F0803825E2920711F510BCA0E0B2
S11306F0B0E0880F991FAA1FBB1F880F991FAA1F5C
S1130700BB1F9C01AD01220F331F441F551F220F35
S1130710331F441F551F60E070E880E790E00E949B
S1130720E3032150310929B988E98AB986E880BDF3
S113073008955D9BFECF8CB90895CF93DF93EC01B0
S11307408881882331F021960E949903899181112F
S1130750FBCFDF91CF910895CF93C82F82958F70EF
S1130760282F30E02A30310514F4805D01C0895C03
S11307700E949903CF708C2F90E00A971CF480E3B9
S11307808C0F02C087E38C0F0E949903CF910895C8
S1130790181619065CF420E030E0E3E3F7E0319743
S11307A0F1F72F5F3F4F82179307B9F708952FEFA3
S11307B08FE593E0215080409040E1F700C00000B5
S11307C080EC8ABF0895A1E21A2EAA1BBB1BFD016F
S11307D00DC0AA1FBB1FEE1FFF1FA217B307E4071C
S11307E0F50720F0A21BB30BE40BF50B661F771F74
S11307F0881F991F1A9469F7609570958095909554
S11108009B01AC01BD01CF010895F894FFCF18
S113080E5265616465722064657465637465642001
S113081E004D4946415245205243353232207632FC
S113082E0A004D4946415245205243353232763103
S113083E0A004E6F2072656164657220666F756E74
S113084E640A0057616974696E672E2E2E0A003A87
S113085E004572726F722072656164696E672073EF
S113086E657269616C210A002E2B0A002E2D0A0076
S9030000FC
